:020000040000fa
:080000000002040000000000f2
:020000040000fa
:0400080008030000e9
:020000040000fa
:04000c0008030000e5
:020000040000fa
:0400100008030000e1
:020000040000fa
:0400140008030000dd
:020000040000fa
:0400180008030000d9
:020000040000fa
:04001c0008030000d5
:020000040000fa
:0400200008030000d1
:020000040000fa
:0400240008030000cd
:020000040000fa
:0400280008030000c9
:020000040000fa
:04002c0008030000c5
:020000040000fa
:0400300008030000c1
:020000040000fa
:0400340008030000bd
:020000040000fa
:0400380008030000b9
:020000040000fa
:04003c0008030000b5
:020000040000fa
:0400400008030000b1
:020000040000fa
:0400440008030000ad
:020000040000fa
:0400480008030000a9
:020000040000fa
:04004c0008030000a5
:020000040000fa
:0400500008030000a1
:020000040000fa
:04005400080300009d
:020000040000fa
:040058000803000099
:020000040000fa
:04005c000803000095
:020000040000fa
:040060000803000091
:020000040000fa
:04006400080300008d
:020000040000fa
:040068000803000089
:020000040000fa
:04006c000803000085
:020000040000fa
:040070000803000081
:020000040000fa
:04007400080300007d
:020000040000fa
:040078000803000079
:020000040000fa
:04007c000803000075
:020000040000fa
:040080000803000071
:020000040000fa
:04008400080300006d
:020000040000fa
:040088000803000069
:020000040000fa
:04008c000803000065
:020000040000fa
:040090000803000061
:020000040000fa
:04009400080300005d
:020000040000fa
:040098000803000059
:020000040000fa
:04009c000803000055
:020000040000fa
:0400a0000803000051
:020000040000fa
:0400a400080300004d
:020000040000fa
:0400a8000803000049
:020000040000fa
:0400ac000803000045
:020000040000fa
:0400b0000803000041
:020000040000fa
:0400b400080300003d
:020000040000fa
:0400b8000803000039
:020000040000fa
:0400bc000803000035
:020000040000fa
:0400c0000803000031
:020000040000fa
:0400c400080300002d
:020000040000fa
:0400c8000803000029
:020000040000fa
:0400cc000803000025
:020000040000fa
:0400d0000803000021
:020000040000fa
:0400d400080300001d
:020000040000fa
:0400d8000803000019
:020000040000fa
:0400dc000803000015
:020000040000fa
:0400e0000803000011
:020000040000fa
:0400e400080300000d
:020000040000fa
:0400e8000803000009
:020000040000fa
:0400ec000803000005
:020000040000fa
:0400f0000803000001
:020000040000fa
:0400f40008030000fd
:020000040000fa
:0400f80008030000f9
:020000040000fa
:0400fc0008030000f5
:020000040000fa
:0401000008030000f0
:020000040000fa
:0401040008030000ec
:020000040000fa
:0401080008030000e8
:020000040000fa
:04010c0008030000e4
:020000040000fa
:0401100008030000e0
:020000040000fa
:0401140008030000dc
:020000040000fa
:0401180008030000d8
:020000040000fa
:04011c0008030000d4
:020000040000fa
:0401200008030000d0
:020000040000fa
:0401240008030000cc
:020000040000fa
:0401280008030000c8
:020000040000fa
:04012c0008030000c4
:020000040000fa
:0401300008030000c0
:020000040000fa
:0401340008030000bc
:020000040000fa
:0401380008030000b8
:020000040000fa
:04013c0008030000b4
:020000040000fa
:0401400008030000b0
:020000040000fa
:0401440008030000ac
:020000040000fa
:0401480008030000a8
:020000040000fa
:04014c0008030000a4
:020000040000fa
:0401500008030000a0
:020000040000fa
:04015400080300009c
:020000040000fa
:040158000803000098
:020000040000fa
:04015c000803000094
:020000040000fa
:040160000803000090
:020000040000fa
:04016400080300008c
:020000040000fa
:040168000803000088
:020000040000fa
:04016c000803000084
:020000040000fa
:040170000803000080
:020000040000fa
:04017400080300007c
:020000040000fa
:040178000803000078
:020000040000fa
:04017c000803000074
:020000040000fa
:040180000803000070
:020000040000fa
:04018400080300006c
:020000040000fa
:040188000803000068
:020000040000fa
:04018c000803000064
:020000040000fa
:040190000803000060
:020000040000fa
:04019400080300005c
:020000040000fa
:040198000803000058
:020000040000fa
:04019c000803000054
:020000040000fa
:0401a0000803000050
:020000040000fa
:0401a400080300004c
:020000040000fa
:0401a8000803000048
:020000040000fa
:0401ac000803000044
:020000040000fa
:0401b0000803000040
:020000040000fa
:0401b400080300003c
:020000040000fa
:0401b8000803000038
:020000040000fa
:0401bc000803000034
:020000040000fa
:0401c0000803000030
:020000040000fa
:0401c400080300002c
:020000040000fa
:0401c8000803000028
:020000040000fa
:0401cc000803000024
:020000040000fa
:0401d0000803000020
:020000040000fa
:0401d400080300001c
:020000040000fa
:0401d8000803000018
:020000040000fa
:0401dc000803000014
:020000040000fa
:0401e0000803000010
:020000040000fa
:0401e400080300000c
:020000040000fa
:0401e8000803000008
:020000040000fa
:0401ec000803000004
:020000040000fa
:0401f0000803000000
:020000040000fa
:0401f40008030000fc
:020000040000fa
:0401f80008030000f8
:020000040000fa
:0401fc0008030000f4
:020000040000fa
:0402080008030000e7
:020000040000fa
:04020c0008030000e3
:020000040000fa
:0402100008030000df
:020000040000fa
:0402140008030000db
:020000040000fa
:0402180008030000d7
:020000040000fa
:04021c0008030000d3
:020000040000fa
:0402200008030000cf
:020000040000fa
:0402240008030000cb
:020000040000fa
:0402280008030000c7
:020000040000fa
:04022c0008030000c3
:020000040000fa
:0402300008030000bf
:020000040000fa
:0402340008030000bb
:020000040000fa
:0402380008030000b7
:020000040000fa
:04023c0008030000b3
:020000040000fa
:0402400008030000af
:020000040000fa
:0402440008030000ab
:020000040000fa
:0402480008030000a7
:020000040000fa
:04024c0008030000a3
:020000040000fa
:04025000080300009f
:020000040000fa
:04025400080300009b
:020000040000fa
:040258000803000097
:020000040000fa
:04025c000803000093
:020000040000fa
:04026000080300008f
:020000040000fa
:04026400080300008b
:020000040000fa
:040268000803000087
:020000040000fa
:04026c000803000083
:020000040000fa
:04027000080300007f
:020000040000fa
:04027400080300007b
:020000040000fa
:040278000803000077
:020000040000fa
:04027c000803000073
:020000040000fa
:04028000080300006f
:020000040000fa
:04028400080300006b
:020000040000fa
:040288000803000067
:020000040000fa
:04028c000803000063
:020000040000fa
:04029000080300005f
:020000040000fa
:04029400080300005b
:020000040000fa
:040298000803000057
:020000040000fa
:04029c000803000053
:020000040000fa
:0402a000080300004f
:020000040000fa
:0402a400080300004b
:020000040000fa
:0402a8000803000047
:020000040000fa
:0402ac000803000043
:020000040000fa
:0402b000080300003f
:020000040000fa
:0402b400080300003b
:020000040000fa
:0402b8000803000037
:020000040000fa
:0402bc000803000033
:020000040000fa
:0402c000080300002f
:020000040000fa
:0402c400080300002b
:020000040000fa
:0402c8000803000027
:020000040000fa
:0402cc000803000023
:020000040000fa
:0402d000080300001f
:020000040000fa
:0402d400080300001b
:020000040000fa
:0402d8000803000017
:020000040000fa
:0402dc000803000013
:020000040000fa
:0402e000080300000f
:020000040000fa
:0402e400080300000b
:020000040000fa
:0402e8000803000007
:020000040000fa
:0402ec000803000003
:020000040000fa
:0402f00008030000ff
:020000040000fa
:0402f40008030000fb
:020000040000fa
:0402f80008030000f7
:020000040000fa
:0402fc0008030000f3
:020000040000fa
:0403000008030000ee
:020000040000fa
:0403040008030000ea
:020000040000fa
:0403080008030000e6
:020000040000fa
:04030c0008030000e2
:020000040000fa
:0403100008030000de
:020000040000fa
:0403140008030000da
:020000040000fa
:0403180008030000d6
:020000040000fa
:04031c0008030000d2
:020000040000fa
:0403200008030000ce
:020000040000fa
:0403240008030000ca
:020000040000fa
:0403280008030000c6
:020000040000fa
:04032c0008030000c2
:020000040000fa
:0403300008030000be
:020000040000fa
:0403340008030000ba
:020000040000fa
:0403380008030000b6
:020000040000fa
:04033c0008030000b2
:020000040000fa
:0403400008030000ae
:020000040000fa
:0403440008030000aa
:020000040000fa
:0403480008030000a6
:020000040000fa
:04034c0008030000a2
:020000040000fa
:04035000080300009e
:020000040000fa
:04035400080300009a
:020000040000fa
:040358000803000096
:020000040000fa
:04035c000803000092
:020000040000fa
:04036000080300008e
:020000040000fa
:04036400080300008a
:020000040000fa
:040368000803000086
:020000040000fa
:04036c000803000082
:020000040000fa
:04037000080300007e
:020000040000fa
:04037400080300007a
:020000040000fa
:040378000803000076
:020000040000fa
:04037c000803000072
:020000040000fa
:04038000080300006e
:020000040000fa
:04038400080300006a
:020000040000fa
:040388000803000066
:020000040000fa
:04038c000803000062
:020000040000fa
:04039000080300005e
:020000040000fa
:04039400080300005a
:020000040000fa
:040398000803000056
:020000040000fa
:04039c000803000052
:020000040000fa
:0403a000080300004e
:020000040000fa
:0403a400080300004a
:020000040000fa
:0403a8000803000046
:020000040000fa
:0403ac000803000042
:020000040000fa
:0403b000080300003e
:020000040000fa
:0403b400080300003a
:020000040000fa
:0403b8000803000036
:020000040000fa
:0403bc000803000032
:020000040000fa
:0403c000080300002e
:020000040000fa
:0403c400080300002a
:020000040000fa
:0403c8000803000026
:020000040000fa
:0403cc000803000022
:020000040000fa
:0403d000080300001e
:020000040000fa
:0403d400080300001a
:020000040000fa
:0403d8000803000016
:020000040000fa
:0403dc000803000012
:020000040000fa
:0403e000080300000e
:020000040000fa
:0403e400080300000a
:020000040000fa
:0403e8000803000006
:020000040000fa
:0403ec000803000002
:020000040000fa
:0403f00008030000fe
:020000040000fa
:0403f40008030000fa
:020000040000fa
:0403f80008030000f6
:020000040000fa
:0403fc0008030000f2
:020000040000fa
:100400000f8020000e7f22000e01880000000000f7
:10041000000020000000e000020032000001200087
:1004200020028800140007007b0007000000e000a5
:1004300003003a0000002000010020000200370005
:100440000000200001002000810f70000100320038
:1004500014000700000020000000e000020032004d
:1004600000000200000000000e0302000000000077
:100470000040da000000fe004440a90020002000f7
:100480000000e0000300320010002000900188000e
:100490004440a800000006008a1f78008b1f7800e7
:1004a00000000600a1028800800478000000eb0034
:1004b0001f003700e284440054a0b4009905ba003c
:1004c000e284440054a0b4009906ba00e2844400d7
:1004d00054a0b4000006eb00476fde00fd07b20039
:1004e000ae018800636ce10003003a00eaff0700f8
:1004f0000000eb000e003700606ce10008003a00dd
:10050000004deb000a05e800020039003420ec0041
:100510000af0a0008b05e900f9ff3e000400370057
:100520006168e100010032000086eb000b0007006b
:1005300019c7ba001905ba000e04e00003003a001a
:100540000a00e000dbff3a0000000600fe07b200f0
:10055000ae0288008a047800f5ff37000cd0a300b3
:10056000e20f4d001c00390089027800354dba00b9
:100570000a05e800020039003420ec000af0a0006f
:100580008b05e9000f003200254dba000a05e8008e
:10059000020039003420ec000af0a0008b05e900cd
:1005a000080032000c00e0000600320015cdba0051
:1005b0000a05e800020039003420ec000af0a0002f
:1005c0008b05e9008984e80054a0b4000b00e0002a
:1005d000e2ff3a00000006009902ba00055d7800cb
:1005e0008b05e900f7ff3200c82ade00055d7800c0
:1005f0008b05e900f3ff32000c00e000f1ff320050
:1006000019ddba00eeff37004603040000000000c9
:0c0610000040da000000fe0000000500c1
:020000040000fa
:10061c000000fa0094a1a90025e1a80021e1a8009e
:10062c0001098000f03f2c000080600000a0a000b9
:10063c000009880096a1a80000902000d10320009a
:10064c001b00070096a1a90000902000d1032000f8
:10065c001700070096a1a80000902000d1032000ed
:10066c0013000700603420000000010096a1a900cf
:10067c0000902000d10320000d000700edff370093
:10068c000000fa000941a9001021ef000981a8001f
:10069c000fe1a8000fe1a80000000000000000001e
:1006ac00000000000040fe000080fa000000060080
:020000040000fa
:1006bc00f03fb1000180b10006003500ee030900e7
:1006cc0000000000403fb1000180b100fbff3d0085
:1006dc001000b000203fb00002003500008009007f
:0806ec00000000000000060000
:020000040000fa
:020000040002f8
:04aff000ecff000072
:020000040000fa
:020000040002f8
:04aff400ffff00005b
:020000040000fa
:020000040002f8
:04aff800bfb70000df
:020000040000fa
:020000040002f8
:04affc00ff7f0000d3
:00000001FF
